{
  "_format": "hh-sol-artifact-1",
  "contractName": "ChainlinkOracle",
  "sourceName": "contracts/oracle/ChainlinkOracle.sol",
  "abi": [
    {
      "inputs": [
        {
          "internalType": "address",
          "name": "_feed",
          "type": "address"
        }
      ],
      "stateMutability": "nonpayable",
      "type": "constructor"
    },
    {
      "inputs": [],
      "name": "getPrice",
      "outputs": [
        {
          "internalType": "uint256",
          "name": "",
          "type": "uint256"
        }
      ],
      "stateMutability": "view",
      "type": "function"
    }
  ],
  "bytecode": "0x608034607057601f61024938819003918201601f19168301916001600160401b03831184841017607557808492602094604052833981010312607057516001600160a01b03811690819003607057600080546001600160a01b0319169190911790556040516101bd908161008c8239f35b600080fd5b634e487b7160e01b600052604160045260246000fdfe608080604052600436101561001357600080fd5b60003560e01c6398d5fdca1461002857600080fd5b3461016b57600036600319011261016b57600054633fabe5a360e21b825260a090829060049082906001600160a01b03165afa90811561015f576000916100e5575b5060008113156100b0576402540be4008102908082046402540be400149015171561009a57602090604051908152f35b634e487b7160e01b600052601160045260246000fd5b60405162461bcd60e51b815260206004820152600d60248201526c496e76616c696420707269636560981b6044820152606490fd5b9060a03d60a011610158575b601f8101601f1916830167ffffffffffffffff8111848210176101445760a091849160405281010312610141575061012881610170565b5061013a608060208301519201610170565b503861006a565b80fd5b634e487b7160e01b83526041600452602483fd5b503d6100f1565b6040513d6000823e3d90fd5b600080fd5b519069ffffffffffffffffffff8216820361016b5756fea2646970667358221220cfef91254a3e7011bd41e3d783963d54ed795b919c8239c2c0ee403d707b775064736f6c634300081c0033",
  "linkReferences": {},
  "deployedLinkReferences": {}
}