{
  "_format": "hh-sol-artifact-1",
  "contractName": "DFT",
  "sourceName": "contracts/token/DFT.sol",
  "abi": [
    {
      "inputs": [
        {
          "internalType": "uint256",
          "name": "initialSupply",
          "type": "uint256"
        }
      ],
      "stateMutability": "nonpayable",
      "type": "constructor"
    },
    {
      "inputs": [
        {
          "internalType": "address",
          "name": "spender",
          "type": "address"
        },
        {
          "internalType": "uint256",
          "name": "allowance",
          "type": "uint256"
        },
        {
          "internalType": "uint256",
          "name": "needed",
          "type": "uint256"
        }
      ],
      "name": "ERC20InsufficientAllowance",
      "type": "error"
    },
    {
      "inputs": [
        {
          "internalType": "address",
          "name": "sender",
          "type": "address"
        },
        {
          "internalType": "uint256",
          "name": "balance",
          "type": "uint256"
        },
        {
          "internalType": "uint256",
          "name": "needed",
          "type": "uint256"
        }
      ],
      "name": "ERC20InsufficientBalance",
      "type": "error"
    },
    {
      "inputs": [
        {
          "internalType": "address",
          "name": "approver",
          "type": "address"
        }
      ],
      "name": "ERC20InvalidApprover",
      "type": "error"
    },
    {
      "inputs": [
        {
          "internalType": "address",
          "name": "receiver",
          "type": "address"
        }
      ],
      "name": "ERC20InvalidReceiver",
      "type": "error"
    },
    {
      "inputs": [
        {
          "internalType": "address",
          "name": "sender",
          "type": "address"
        }
      ],
      "name": "ERC20InvalidSender",
      "type": "error"
    },
    {
      "inputs": [
        {
          "internalType": "address",
          "name": "spender",
          "type": "address"
        }
      ],
      "name": "ERC20InvalidSpender",
      "type": "error"
    },
    {
      "inputs": [
        {
          "internalType": "address",
          "name": "owner",
          "type": "address"
        }
      ],
      "name": "OwnableInvalidOwner",
      "type": "error"
    },
    {
      "inputs": [
        {
          "internalType": "address",
          "name": "account",
          "type": "address"
        }
      ],
      "name": "OwnableUnauthorizedAccount",
      "type": "error"
    },
    {
      "anonymous": false,
      "inputs": [
        {
          "indexed": true,
          "internalType": "address",
          "name": "owner",
          "type": "address"
        },
        {
          "indexed": true,
          "internalType": "address",
          "name": "spender",
          "type": "address"
        },
        {
          "indexed": false,
          "internalType": "uint256",
          "name": "value",
          "type": "uint256"
        }
      ],
      "name": "Approval",
      "type": "event"
    },
    {
      "anonymous": false,
      "inputs": [
        {
          "indexed": true,
          "internalType": "address",
          "name": "previousOwner",
          "type": "address"
        },
        {
          "indexed": true,
          "internalType": "address",
          "name": "newOwner",
          "type": "address"
        }
      ],
      "name": "OwnershipTransferred",
      "type": "event"
    },
    {
      "anonymous": false,
      "inputs": [
        {
          "indexed": true,
          "internalType": "address",
          "name": "from",
          "type": "address"
        },
        {
          "indexed": true,
          "internalType": "address",
          "name": "to",
          "type": "address"
        },
        {
          "indexed": false,
          "internalType": "uint256",
          "name": "value",
          "type": "uint256"
        }
      ],
      "name": "Transfer",
      "type": "event"
    },
    {
      "inputs": [
        {
          "internalType": "address",
          "name": "owner",
          "type": "address"
        },
        {
          "internalType": "address",
          "name": "spender",
          "type": "address"
        }
      ],
      "name": "allowance",
      "outputs": [
        {
          "internalType": "uint256",
          "name": "",
          "type": "uint256"
        }
      ],
      "stateMutability": "view",
      "type": "function"
    },
    {
      "inputs": [
        {
          "internalType": "address",
          "name": "spender",
          "type": "address"
        },
        {
          "internalType": "uint256",
          "name": "value",
          "type": "uint256"
        }
      ],
      "name": "approve",
      "outputs": [
        {
          "internalType": "bool",
          "name": "",
          "type": "bool"
        }
      ],
      "stateMutability": "nonpayable",
      "type": "function"
    },
    {
      "inputs": [
        {
          "internalType": "address",
          "name": "account",
          "type": "address"
        }
      ],
      "name": "balanceOf",
      "outputs": [
        {
          "internalType": "uint256",
          "name": "",
          "type": "uint256"
        }
      ],
      "stateMutability": "view",
      "type": "function"
    },
    {
      "inputs": [],
      "name": "baseBurnRate",
      "outputs": [
        {
          "internalType": "uint256",
          "name": "",
          "type": "uint256"
        }
      ],
      "stateMutability": "view",
      "type": "function"
    },
    {
      "inputs": [],
      "name": "decimals",
      "outputs": [
        {
          "internalType": "uint8",
          "name": "",
          "type": "uint8"
        }
      ],
      "stateMutability": "view",
      "type": "function"
    },
    {
      "inputs": [],
      "name": "maxBurnRate",
      "outputs": [
        {
          "internalType": "uint256",
          "name": "",
          "type": "uint256"
        }
      ],
      "stateMutability": "view",
      "type": "function"
    },
    {
      "inputs": [],
      "name": "name",
      "outputs": [
        {
          "internalType": "string",
          "name": "",
          "type": "string"
        }
      ],
      "stateMutability": "view",
      "type": "function"
    },
    {
      "inputs": [],
      "name": "owner",
      "outputs": [
        {
          "internalType": "address",
          "name": "",
          "type": "address"
        }
      ],
      "stateMutability": "view",
      "type": "function"
    },
    {
      "inputs": [],
      "name": "renounceOwnership",
      "outputs": [],
      "stateMutability": "nonpayable",
      "type": "function"
    },
    {
      "inputs": [
        {
          "internalType": "uint256",
          "name": "_base",
          "type": "uint256"
        },
        {
          "internalType": "uint256",
          "name": "_max",
          "type": "uint256"
        }
      ],
      "name": "setBurnRates",
      "outputs": [],
      "stateMutability": "nonpayable",
      "type": "function"
    },
    {
      "inputs": [],
      "name": "symbol",
      "outputs": [
        {
          "internalType": "string",
          "name": "",
          "type": "string"
        }
      ],
      "stateMutability": "view",
      "type": "function"
    },
    {
      "inputs": [],
      "name": "totalSupply",
      "outputs": [
        {
          "internalType": "uint256",
          "name": "",
          "type": "uint256"
        }
      ],
      "stateMutability": "view",
      "type": "function"
    },
    {
      "inputs": [
        {
          "internalType": "address",
          "name": "to",
          "type": "address"
        },
        {
          "internalType": "uint256",
          "name": "amount",
          "type": "uint256"
        }
      ],
      "name": "transfer",
      "outputs": [
        {
          "internalType": "bool",
          "name": "",
          "type": "bool"
        }
      ],
      "stateMutability": "nonpayable",
      "type": "function"
    },
    {
      "inputs": [
        {
          "internalType": "address",
          "name": "from",
          "type": "address"
        },
        {
          "internalType": "address",
          "name": "to",
          "type": "address"
        },
        {
          "internalType": "uint256",
          "name": "amount",
          "type": "uint256"
        }
      ],
      "name": "transferFrom",
      "outputs": [
        {
          "internalType": "bool",
          "name": "",
          "type": "bool"
        }
      ],
      "stateMutability": "nonpayable",
      "type": "function"
    },
    {
      "inputs": [
        {
          "internalType": "address",
          "name": "newOwner",
          "type": "address"
        }
      ],
      "name": "transferOwnership",
      "outputs": [],
      "stateMutability": "nonpayable",
      "type": "function"
    }
  ],
  "bytecode": "0x60806040523461040057610da96020813803918261001c81610405565b93849283398101031261040057516100346040610405565b90600c82526b2232b33630ba102a37b5b2b760a11b60208301526100586040610405565b600381526211119560ea1b602082015282519091906001600160401b03811161030957600354600181811c911680156103f6575b60208210146102e957601f8111610391575b506020601f821160011461032a578192939460009261031f575b50508160011b916000199060031b1c1916176003555b81516001600160401b03811161030957600454600181811c911680156102ff575b60208210146102e957601f8111610284575b50602092601f821160011461021f5792819293600092610214575b50508160011b916000199060031b1c1916176004555b33156101fe5760058054336001600160a01b0319821681179092556001600160a01b03167f8be0079c531659141344cd1fd0a4f28419497f9722a3daafe3b4186f6b6457e0600080a360006002548281018091116101ea5760025550336000526000602052604060002081815401905560405190815260007fddf252ad1be2c89b69c2b068fc378daa952ba7f163c4a11628f55a4df523b3ef60203393a360326006556103e860075560405161097e908161042b8239f35b634e487b7160e01b82526011600452602482fd5b631e4fbdf760e01b600052600060045260246000fd5b01519050388061011c565b601f198216936004600052806000209160005b86811061026c5750836001959610610253575b505050811b01600455610132565b015160001960f88460031b161c19169055388080610245565b91926020600181928685015181550194019201610232565b60046000527f8a35acfbc15ff81a39ae7d344fd709f28e8600b4aa8c65c6b64bfe7fe36bd19b601f830160051c810191602084106102df575b601f0160051c01905b8181106102d35750610101565b600081556001016102c6565b90915081906102bd565b634e487b7160e01b600052602260045260246000fd5b90607f16906100ef565b634e487b7160e01b600052604160045260246000fd5b0151905038806100b8565b601f198216906003600052806000209160005b81811061037957509583600195969710610360575b505050811b016003556100ce565b015160001960f88460031b161c19169055388080610352565b9192602060018192868b01518155019401920161033d565b60036000527fc2575a0e9e593c00f959f8c92f12db2869c3395a3b0502d05e2516446f71f85b601f830160051c810191602084106103ec575b601f0160051c01905b8181106103e0575061009e565b600081556001016103d3565b90915081906103ca565b90607f169061008c565b600080fd5b6040519190601f01601f191682016001600160401b038111838210176103095760405256fe608080604052600436101561001357600080fd5b60003560e01c90816306fdde031461065b57508063095ea7b3146105d557806318160ddd146105b757806323b872dd146104a0578063313ce5671461048457806370a082311461044a578063715018a6146103ed5780638445d1581461038d5780638da5cb5b1461036457806395d89b4114610243578063a9059cbb146101e0578063dd62ed3e1461018f578063f2fde38b14610105578063f904ed9f146100e75763fadde569146100c457600080fd5b346100e25760003660031901126100e2576020600654604051908152f35b600080fd5b346100e25760003660031901126100e2576020600754604051908152f35b346100e25760203660031901126100e25761011e610777565b610126610870565b6001600160a01b0316801561017957600580546001600160a01b0319811683179091556001600160a01b03167f8be0079c531659141344cd1fd0a4f28419497f9722a3daafe3b4186f6b6457e0600080a3005b631e4fbdf760e01b600052600060045260246000fd5b346100e25760403660031901126100e2576101a8610777565b6101b061078d565b6001600160a01b039182166000908152600160209081526040808320949093168252928352819020549051908152f35b346100e25760403660031901126100e2576102286101fc610777565b6024359061021a612710610212600654856107a3565b0480936107cc565b9180610233575b5033610899565b602060405160018152f35b61023d90336107d9565b83610221565b346100e25760003660031901126100e25760405160006004548060011c9060018116801561035a575b6020831081146103465782855290811561032a57506001146102d3575b50819003601f01601f191681019067ffffffffffffffff8211818310176102bd576102b98291826040528261072e565b0390f35b634e487b7160e01b600052604160045260246000fd5b905060046000527f8a35acfbc15ff81a39ae7d344fd709f28e8600b4aa8c65c6b64bfe7fe36bd19b6000905b82821061031457506020915082010182610289565b60018160209254838588010152019101906102ff565b90506020925060ff191682840152151560051b82010182610289565b634e487b7160e01b84526022600452602484fd5b91607f169161026c565b346100e25760003660031901126100e2576005546040516001600160a01b039091168152602090f35b346100e25760403660031901126100e2576024356004356103ac610870565b8181116103bb57600655600755005b60405162461bcd60e51b815260206004820152600a602482015269084c2e6ca407c409ac2f60b31b6044820152606490fd5b346100e25760003660031901126100e257610406610870565b600580546001600160a01b031981169091556000906001600160a01b03167f8be0079c531659141344cd1fd0a4f28419497f9722a3daafe3b4186f6b6457e08280a3005b346100e25760203660031901126100e2576001600160a01b0361046b610777565b1660005260006020526020604060002054604051908152f35b346100e25760003660031901126100e257602060405160128152f35b346100e25760603660031901126100e2576104b9610777565b6104c161078d565b604435906104d7612710610212600654856107a3565b91806105a7575b506001600160a01b0383166000818152600160209081526040808320338452909152902054909390600019811061051b575b506102289350610899565b83811061058a57841561057457331561055e57610228946000526001602052604060002060018060a01b0333166000526020528360406000209103905584610510565b634a1406b160e11b600052600060045260246000fd5b63e602df0560e01b600052600060045260246000fd5b8390637dc7a0d960e11b6000523360045260245260445260646000fd5b6105b190846107d9565b836104de565b346100e25760003660031901126100e2576020600254604051908152f35b346100e25760403660031901126100e2576105ee610777565b602435903315610574576001600160a01b031690811561055e57336000526001602052604060002082600052602052806040600020556040519081527f8c5be1e5ebec7d5bd14f71427d1e84f3dd0314c0f7b2291e5b200ac8c7c3b92560203392a3602060405160018152f35b346100e25760003660031901126100e25760006003548060011c90600181168015610724575b6020831081146103465782855290811561032a57506001146106cd5750819003601f01601f191681019067ffffffffffffffff8211818310176102bd576102b98291826040528261072e565b905060036000527fc2575a0e9e593c00f959f8c92f12db2869c3395a3b0502d05e2516446f71f85b6000905b82821061070e57506020915082010182610289565b60018160209254838588010152019101906106f9565b91607f1691610681565b91909160208152825180602083015260005b818110610761575060409293506000838284010152601f8019910116010190565b8060208092870101516040828601015201610740565b600435906001600160a01b03821682036100e257565b602435906001600160a01b03821682036100e257565b818102929181159184041417156107b657565b634e487b7160e01b600052601160045260246000fd5b919082039182116107b657565b6001600160a01b0316801561085a5760009181835282602052604083205481811061084157817fddf252ad1be2c89b69c2b068fc378daa952ba7f163c4a11628f55a4df523b3ef926020928587528684520360408620558060025403600255604051908152a3565b6064939263391434e360e21b8452600452602452604452fd5b634b637e8f60e11b600052600060045260246000fd5b6005546001600160a01b0316330361088457565b63118cdaa760e01b6000523360045260246000fd5b6001600160a01b031690811561085a576001600160a01b03169182156109325760008281528060205260408120548281106109185791604082827fddf252ad1be2c89b69c2b068fc378daa952ba7f163c4a11628f55a4df523b3ef958760209652828652038282205586815280845220818154019055604051908152a3565b916064928463391434e360e21b8452600452602452604452fd5b63ec442f0560e01b600052600060045260246000fdfea26469706673582212201895bc8bfa95967f46e046257002eab15a6236abf25a4ebf9e9265d624bf520164736f6c634300081c0033",
  "linkReferences": {},
  "deployedLinkReferences": {}
}