{
  "_format": "hh-sol-artifact-1",
  "contractName": "LiquidityVault",
  "sourceName": "contracts/vault/LiquitityVault.sol",
  "abi": [
    {
      "inputs": [
        {
          "internalType": "address",
          "name": "_stable",
          "type": "address"
        },
        {
          "internalType": "address",
          "name": "_dft",
          "type": "address"
        },
        {
          "internalType": "address",
          "name": "_pool",
          "type": "address"
        },
        {
          "internalType": "address",
          "name": "_owner",
          "type": "address"
        }
      ],
      "stateMutability": "nonpayable",
      "type": "constructor"
    },
    {
      "inputs": [
        {
          "internalType": "address",
          "name": "owner",
          "type": "address"
        }
      ],
      "name": "OwnableInvalidOwner",
      "type": "error"
    },
    {
      "inputs": [
        {
          "internalType": "address",
          "name": "account",
          "type": "address"
        }
      ],
      "name": "OwnableUnauthorizedAccount",
      "type": "error"
    },
    {
      "inputs": [
        {
          "internalType": "address",
          "name": "token",
          "type": "address"
        }
      ],
      "name": "SafeERC20FailedOperation",
      "type": "error"
    },
    {
      "anonymous": false,
      "inputs": [
        {
          "indexed": false,
          "internalType": "uint256",
          "name": "emaShort",
          "type": "uint256"
        },
        {
          "indexed": false,
          "internalType": "uint256",
          "name": "emaLong",
          "type": "uint256"
        },
        {
          "indexed": false,
          "internalType": "uint32",
          "name": "ts",
          "type": "uint32"
        },
        {
          "indexed": false,
          "internalType": "uint256",
          "name": "spot",
          "type": "uint256"
        }
      ],
      "name": "EmaUpdated",
      "type": "event"
    },
    {
      "anonymous": false,
      "inputs": [
        {
          "indexed": true,
          "internalType": "address",
          "name": "previousOwner",
          "type": "address"
        },
        {
          "indexed": true,
          "internalType": "address",
          "name": "newOwner",
          "type": "address"
        }
      ],
      "name": "OwnershipTransferred",
      "type": "event"
    },
    {
      "anonymous": false,
      "inputs": [
        {
          "indexed": false,
          "internalType": "uint16",
          "name": "triggerBps",
          "type": "uint16"
        },
        {
          "indexed": false,
          "internalType": "uint16",
          "name": "slippageBps",
          "type": "uint16"
        },
        {
          "indexed": false,
          "internalType": "uint16",
          "name": "kUpPer100bps",
          "type": "uint16"
        },
        {
          "indexed": false,
          "internalType": "uint16",
          "name": "kDownPer100bps",
          "type": "uint16"
        },
        {
          "indexed": false,
          "internalType": "uint16",
          "name": "maxActionBpsBuy",
          "type": "uint16"
        },
        {
          "indexed": false,
          "internalType": "uint16",
          "name": "maxActionBpsSell",
          "type": "uint16"
        },
        {
          "indexed": false,
          "internalType": "uint32",
          "name": "minSpacingSec",
          "type": "uint32"
        },
        {
          "indexed": false,
          "internalType": "uint16",
          "name": "maxStressRatioBps",
          "type": "uint16"
        },
        {
          "indexed": false,
          "internalType": "uint16",
          "name": "maxDailyBudgetBps",
          "type": "uint16"
        },
        {
          "indexed": false,
          "internalType": "uint16",
          "name": "targetStableShareBps",
          "type": "uint16"
        },
        {
          "indexed": false,
          "internalType": "uint16",
          "name": "allocBandBps",
          "type": "uint16"
        }
      ],
      "name": "ParamsUpdated",
      "type": "event"
    },
    {
      "anonymous": false,
      "inputs": [
        {
          "indexed": true,
          "internalType": "address",
          "name": "pool",
          "type": "address"
        }
      ],
      "name": "PoolSet",
      "type": "event"
    },
    {
      "anonymous": false,
      "inputs": [
        {
          "indexed": false,
          "internalType": "string",
          "name": "action",
          "type": "string"
        },
        {
          "indexed": false,
          "internalType": "uint256",
          "name": "amountIn",
          "type": "uint256"
        },
        {
          "indexed": false,
          "internalType": "uint256",
          "name": "amountOut",
          "type": "uint256"
        },
        {
          "indexed": false,
          "internalType": "int256",
          "name": "deltaBps",
          "type": "int256"
        },
        {
          "indexed": false,
          "internalType": "uint256",
          "name": "stableEqBefore",
          "type": "uint256"
        },
        {
          "indexed": false,
          "internalType": "uint256",
          "name": "stableEqAfter",
          "type": "uint256"
        }
      ],
      "name": "Rebalanced",
      "type": "event"
    },
    {
      "anonymous": false,
      "inputs": [
        {
          "indexed": false,
          "internalType": "uint256",
          "name": "dftAdded",
          "type": "uint256"
        },
        {
          "indexed": false,
          "internalType": "uint256",
          "name": "stableAdded",
          "type": "uint256"
        },
        {
          "indexed": false,
          "internalType": "uint256",
          "name": "lpMinted",
          "type": "uint256"
        }
      ],
      "name": "SeededLiquidity",
      "type": "event"
    },
    {
      "inputs": [],
      "name": "allocBandBps",
      "outputs": [
        {
          "internalType": "uint16",
          "name": "",
          "type": "uint16"
        }
      ],
      "stateMutability": "view",
      "type": "function"
    },
    {
      "inputs": [],
      "name": "budgetDayStart",
      "outputs": [
        {
          "internalType": "uint32",
          "name": "",
          "type": "uint32"
        }
      ],
      "stateMutability": "view",
      "type": "function"
    },
    {
      "inputs": [
        {
          "internalType": "uint256",
          "name": "stableIn",
          "type": "uint256"
        }
      ],
      "name": "buyDFTViaPool",
      "outputs": [
        {
          "internalType": "uint256",
          "name": "dftOut",
          "type": "uint256"
        }
      ],
      "stateMutability": "nonpayable",
      "type": "function"
    },
    {
      "inputs": [],
      "name": "dft",
      "outputs": [
        {
          "internalType": "contract IERC20",
          "name": "",
          "type": "address"
        }
      ],
      "stateMutability": "view",
      "type": "function"
    },
    {
      "inputs": [],
      "name": "emaLong",
      "outputs": [
        {
          "internalType": "uint256",
          "name": "",
          "type": "uint256"
        }
      ],
      "stateMutability": "view",
      "type": "function"
    },
    {
      "inputs": [],
      "name": "emaShort",
      "outputs": [
        {
          "internalType": "uint256",
          "name": "",
          "type": "uint256"
        }
      ],
      "stateMutability": "view",
      "type": "function"
    },
    {
      "inputs": [],
      "name": "getDeltaBps",
      "outputs": [
        {
          "internalType": "int256",
          "name": "deltaBps",
          "type": "int256"
        }
      ],
      "stateMutability": "view",
      "type": "function"
    },
    {
      "inputs": [],
      "name": "getPoolPriceDFTInStable18",
      "outputs": [
        {
          "internalType": "uint256",
          "name": "price",
          "type": "uint256"
        }
      ],
      "stateMutability": "view",
      "type": "function"
    },
    {
      "inputs": [],
      "name": "kDownPer100bps",
      "outputs": [
        {
          "internalType": "uint16",
          "name": "",
          "type": "uint16"
        }
      ],
      "stateMutability": "view",
      "type": "function"
    },
    {
      "inputs": [],
      "name": "kUpPer100bps",
      "outputs": [
        {
          "internalType": "uint16",
          "name": "",
          "type": "uint16"
        }
      ],
      "stateMutability": "view",
      "type": "function"
    },
    {
      "inputs": [],
      "name": "lastEmaUpdate",
      "outputs": [
        {
          "internalType": "uint32",
          "name": "",
          "type": "uint32"
        }
      ],
      "stateMutability": "view",
      "type": "function"
    },
    {
      "inputs": [],
      "name": "longPeriodSec",
      "outputs": [
        {
          "internalType": "uint32",
          "name": "",
          "type": "uint32"
        }
      ],
      "stateMutability": "view",
      "type": "function"
    },
    {
      "inputs": [],
      "name": "maxActionBpsBuy",
      "outputs": [
        {
          "internalType": "uint16",
          "name": "",
          "type": "uint16"
        }
      ],
      "stateMutability": "view",
      "type": "function"
    },
    {
      "inputs": [],
      "name": "maxActionBpsSell",
      "outputs": [
        {
          "internalType": "uint16",
          "name": "",
          "type": "uint16"
        }
      ],
      "stateMutability": "view",
      "type": "function"
    },
    {
      "inputs": [],
      "name": "maxDailyBudgetBps",
      "outputs": [
        {
          "internalType": "uint16",
          "name": "",
          "type": "uint16"
        }
      ],
      "stateMutability": "view",
      "type": "function"
    },
    {
      "inputs": [],
      "name": "maxStressRatioBps",
      "outputs": [
        {
          "internalType": "uint16",
          "name": "",
          "type": "uint16"
        }
      ],
      "stateMutability": "view",
      "type": "function"
    },
    {
      "inputs": [],
      "name": "minSpacingSec",
      "outputs": [
        {
          "internalType": "uint32",
          "name": "",
          "type": "uint32"
        }
      ],
      "stateMutability": "view",
      "type": "function"
    },
    {
      "inputs": [],
      "name": "nextAllowedAt",
      "outputs": [
        {
          "internalType": "uint32",
          "name": "",
          "type": "uint32"
        }
      ],
      "stateMutability": "view",
      "type": "function"
    },
    {
      "inputs": [],
      "name": "owner",
      "outputs": [
        {
          "internalType": "address",
          "name": "",
          "type": "address"
        }
      ],
      "stateMutability": "view",
      "type": "function"
    },
    {
      "inputs": [],
      "name": "pool",
      "outputs": [
        {
          "internalType": "contract ILiquidityPool",
          "name": "",
          "type": "address"
        }
      ],
      "stateMutability": "view",
      "type": "function"
    },
    {
      "inputs": [],
      "name": "rebalanceOnceByPriceDrift",
      "outputs": [],
      "stateMutability": "nonpayable",
      "type": "function"
    },
    {
      "inputs": [],
      "name": "renounceOwnership",
      "outputs": [],
      "stateMutability": "nonpayable",
      "type": "function"
    },
    {
      "inputs": [
        {
          "internalType": "address",
          "name": "token",
          "type": "address"
        },
        {
          "internalType": "uint256",
          "name": "amount",
          "type": "uint256"
        },
        {
          "internalType": "address",
          "name": "to",
          "type": "address"
        }
      ],
      "name": "rescueToken",
      "outputs": [],
      "stateMutability": "nonpayable",
      "type": "function"
    },
    {
      "inputs": [
        {
          "internalType": "uint256",
          "name": "amountDFT",
          "type": "uint256"
        },
        {
          "internalType": "uint256",
          "name": "amountStable",
          "type": "uint256"
        }
      ],
      "name": "seedLiquidity",
      "outputs": [],
      "stateMutability": "nonpayable",
      "type": "function"
    },
    {
      "inputs": [
        {
          "internalType": "uint256",
          "name": "dftIn",
          "type": "uint256"
        }
      ],
      "name": "sellDFTViaPool",
      "outputs": [
        {
          "internalType": "uint256",
          "name": "stableOut",
          "type": "uint256"
        }
      ],
      "stateMutability": "nonpayable",
      "type": "function"
    },
    {
      "inputs": [
        {
          "internalType": "uint16",
          "name": "_triggerBps",
          "type": "uint16"
        },
        {
          "internalType": "uint16",
          "name": "_slippageBps",
          "type": "uint16"
        },
        {
          "internalType": "uint16",
          "name": "_kUpPer100bps",
          "type": "uint16"
        },
        {
          "internalType": "uint16",
          "name": "_kDownPer100bps",
          "type": "uint16"
        },
        {
          "internalType": "uint16",
          "name": "_maxActionBpsBuy",
          "type": "uint16"
        },
        {
          "internalType": "uint16",
          "name": "_maxActionBpsSell",
          "type": "uint16"
        },
        {
          "internalType": "uint32",
          "name": "_minSpacingSec",
          "type": "uint32"
        },
        {
          "internalType": "uint16",
          "name": "_maxStressRatioBps",
          "type": "uint16"
        },
        {
          "internalType": "uint16",
          "name": "_maxDailyBudgetBps",
          "type": "uint16"
        },
        {
          "internalType": "uint16",
          "name": "_targetStableShareBps",
          "type": "uint16"
        },
        {
          "internalType": "uint16",
          "name": "_allocBandBps",
          "type": "uint16"
        }
      ],
      "name": "setParams",
      "outputs": [],
      "stateMutability": "nonpayable",
      "type": "function"
    },
    {
      "inputs": [
        {
          "internalType": "address",
          "name": "_pool",
          "type": "address"
        }
      ],
      "name": "setPool",
      "outputs": [],
      "stateMutability": "nonpayable",
      "type": "function"
    },
    {
      "inputs": [],
      "name": "shortPeriodSec",
      "outputs": [
        {
          "internalType": "uint32",
          "name": "",
          "type": "uint32"
        }
      ],
      "stateMutability": "view",
      "type": "function"
    },
    {
      "inputs": [],
      "name": "slippageBps",
      "outputs": [
        {
          "internalType": "uint16",
          "name": "",
          "type": "uint16"
        }
      ],
      "stateMutability": "view",
      "type": "function"
    },
    {
      "inputs": [],
      "name": "spentTodayStableEq",
      "outputs": [
        {
          "internalType": "uint256",
          "name": "",
          "type": "uint256"
        }
      ],
      "stateMutability": "view",
      "type": "function"
    },
    {
      "inputs": [],
      "name": "stable",
      "outputs": [
        {
          "internalType": "contract IERC20",
          "name": "",
          "type": "address"
        }
      ],
      "stateMutability": "view",
      "type": "function"
    },
    {
      "inputs": [],
      "name": "targetStableShareBps",
      "outputs": [
        {
          "internalType": "uint16",
          "name": "",
          "type": "uint16"
        }
      ],
      "stateMutability": "view",
      "type": "function"
    },
    {
      "inputs": [
        {
          "internalType": "address",
          "name": "newOwner",
          "type": "address"
        }
      ],
      "name": "transferOwnership",
      "outputs": [],
      "stateMutability": "nonpayable",
      "type": "function"
    },
    {
      "inputs": [],
      "name": "triggerBps",
      "outputs": [
        {
          "internalType": "uint16",
          "name": "",
          "type": "uint16"
        }
      ],
      "stateMutability": "view",
      "type": "function"
    }
  ],
  "bytecode": "0x60c0806040523461029c5760808161242d803803809161001f82856102a1565b83398101031261029c57610032816102da565b9061003f602082016102da565b61004b604083016102da565b916001600160a01b0390610061906060016102da565b1690811561028657600080546001600160a01b031981168417825560405193916001600160a01b03909116907f8be0079c531659141344cd1fd0a4f28419497f9722a3daafe3b4186f6b6457e09080a3600154600480547b012c0320000000000000007800c800640032001901f40064000000007fffffffff00000000ffffffff00000000000000000000000000000000ffffffff9091161790556006805463ffffffff60201b19166703e8138800000000179055936001600160a01b03169182151580610274575b80610262575b15610234575060808290526001600160a01b0390811660a0526001600160e01b0319909316928216928317650384000000e160a31b1760015561018a91906101799082906102ee565b60a0516001600160a01b03166102ee565b63ffffffff42168063ffffffff19600454161760045563ffffffff196006541617600655604051907f025f89b99c8ce32af8da7624f4575b920a86ebf07870d85a9fb545fee349ddce600080a261201a90816104138239608051818181610a4901528181610b5f015281816110c80152818161137c01528181611d0d0152611e3e015260a05181818161099001528181610a78015281816113d201528181611d630152611e940152f35b62461bcd60e51b81526020600482015260096024820152683d32b9379030b2323960b91b6044820152606490fd5b506001600160a01b0384161515610130565b506001600160a01b038216151561012a565b631e4fbdf760e01b600052600060045260246000fd5b600080fd5b601f909101601f19168101906001600160401b038211908210176102c457604052565b634e487b7160e01b600052604160045260246000fd5b51906001600160a01b038216820361029c57565b60405190602060008184019463095ea7b360e01b865260018060a01b03169485602486015281196044860152604485526103296064866102a1565b84519082855af16000513d82610386575b50501561034657505050565b61037f610384936040519063095ea7b360e01b6020830152602482015260006044820152604481526103796064826102a1565b826103ab565b6103ab565b565b9091506103a357506001600160a01b0381163b15155b388061033a565b60011461039c565b906000602091828151910182855af115610406576000513d6103fd57506001600160a01b0381163b155b6103dc5750565b635274afe760e01b60009081526001600160a01b0391909116600452602490fd5b600114156103d5565b6040513d6000823e3d90fdfe6080604052600436101561001257600080fd5b60003560e01c806301db554a14610c6f57806313a9f43e14610c4a57806314dbdbda14610c235780631668f73814610bfc57806316f0115b14610bd3578063186e2a1914610bb557806321a9935614610b8e57806322be3de114610b4957806327ccfc9314610b245780632c13a3fd14610aff5780634437152a146109ff578063462587c8146109da57806351ebd126146109bf57806356675b5d1461097a578063578c71d9146109555780636679d9fb14610645578063715018a6146105ec57806373c99c47146105ce578063777d6cc1146105a95780638d7e076d1461047a5780638da5cb5b146104515780639685cddb1461042d57806397e2ff3f1461040857806399872acf146103e75780639c0f5b5d146103c9578063b139fbb7146103a2578063d057575b1461037e578063e21cb71d1461035b578063e8c258db14610336578063f1719aa214610312578063f2fde38b14610289578063f85ca8541461026b578063f8a67a62146101bb5763fa6d92fd1461019257600080fd5b346101b65760003660031901126101b657602061ffff600454821c16604051908152f35b600080fd5b346101b65760603660031901126101b6576101d4610c8d565b6044356001600160a01b038116908190036101b6576101f16118e3565b801561023c5760405163a9059cbb60e01b60208201526024808201929092529035604480830191909152815261023a9161022c606483610dec565b6001600160a01b0316611f89565b005b60405162461bcd60e51b81526020600482015260076024820152667a65726f20746f60c81b6044820152606490fd5b346101b65760003660031901126101b6576020600254604051908152f35b346101b65760203660031901126101b6576102a2610c8d565b6102aa6118e3565b6001600160a01b031680156102fc57600080546001600160a01b03198116831782556001600160a01b0316907f8be0079c531659141344cd1fd0a4f28419497f9722a3daafe3b4186f6b6457e09080a3005b631e4fbdf760e01b600052600060045260246000fd5b346101b65760003660031901126101b657602063ffffffff60065416604051908152f35b346101b65760003660031901126101b657602061ffff60045460d01c16604051908152f35b346101b65760003660031901126101b657602061037661186d565b604051908152f35b346101b65760003660031901126101b657602061ffff600654821c16604051908152f35b346101b65760003660031901126101b657602063ffffffff60045460a01c16604051908152f35b346101b65760203660031901126101b6576020610376600435611790565b346101b65760003660031901126101b6576104006118e3565b61023a610f47565b346101b65760003660031901126101b657602061ffff60045460601c16604051908152f35b346101b65760003660031901126101b657602063ffffffff60045416604051908152f35b346101b65760003660031901126101b6576000546040516001600160a01b039091168152602090f35b346101b65760403660031901126101b6576004356024356104996118e3565b811515806105a0575b1561057357606090604460018060a01b03600154169360006040519586948593634e6a20ed60e11b8552600485015260248401525af180156105675760009081928291610523575b7fc89ffa9f9525854c2f08ef27eec21a9047f8e0119d5e14c5d6b750a671d9a6a8606085858560405192835260208301526040820152a1005b9250506060823d60601161055f575b8161053f60609383610dec565b8101031261055c57508051602082015160409092015160606104ea565b80fd5b3d9150610532565b6040513d6000823e3d90fd5b60405162461bcd60e51b81526020600482015260056024820152647a65726f7360d81b6044820152606490fd5b508015156104a2565b346101b65760003660031901126101b657602061ffff60045460c01c16604051908152f35b346101b65760003660031901126101b6576020600354604051908152f35b346101b65760003660031901126101b6576106056118e3565b600080546001600160a01b0319811682556001600160a01b03167f8be0079c531659141344cd1fd0a4f28419497f9722a3daafe3b4186f6b6457e08280a3005b346101b6576101603660031901126101b65760043561ffff811681036101b65760243561ffff81168082036101b65760443561ffff811681036101b6576064359061ffff821682036101b6576084359461ffff861686036101b65760a4359161ffff831683036101b65760c43563ffffffff811681036101b65760e4359161ffff831683036101b657610104359461ffff861686036101b657610124359561ffff8716988988036101b657610144359961ffff8b1691828c036101b65761012c9061070e6118e3565b1161091c57612710106108ea57611388106108ba577f6cae68428c4606f0b861f0089b346eb42072d2a4d975ef2e8689f51bdd01946b9a6101609a61ffff99600454938b60d01b9060d01b16988b60d01b199669ffff00000000000000008d60c01b199663ffffffff60801b19958f67ffff0000000000009060701b199561ffff60601b199361ffff65ffff000000009060501b199260201b169069ffffffffffff00000000191617169160301b1617169160401b161716908b60501b9060501b161716908960601b9060601b161716908760701b9060701b1617169063ffffffff60801b9060801b1617908460c01b9060c01b161717928360045565ffff0000000067ffff0000000000006006549260301b169260201b169067ffffffff0000000019161717806006558160405193818160201c168552818160301c166020860152818160401c166040860152818160501c166060860152818160601c166080860152818160701c1660a086015263ffffffff8160801c1660c0860152818160c01c1660e086015260d01c16610100840152818160201c1661012084015260301c16610140820152a1005b60405162461bcd60e51b81526020600482015260086024820152671898590818985b9960c21b6044820152606490fd5b60405162461bcd60e51b815260206004820152600a602482015269189859081d185c99d95d60b21b6044820152606490fd5b60405162461bcd60e51b81526020600482015260116024820152700e6d8d2e0e0c2ceca40e8dede40d0d2ced607b1b6044820152606490fd5b346101b65760003660031901126101b657602061ffff60045460301c16604051908152f35b346101b65760003660031901126101b6576040517f00000000000000000000000000000000000000000000000000000000000000006001600160a01b03168152602090f35b346101b65760003660031901126101b6576020610376610e81565b346101b65760003660031901126101b657602061ffff60045460401c16604051908152f35b346101b65760203660031901126101b657610a18610c8d565b610a206118e3565b6001600160a01b038116908115610ace57600180546001600160a01b03191683179055610aa7907f0000000000000000000000000000000000000000000000000000000000000000610a72828261190c565b610aa2827f000000000000000000000000000000000000000000000000000000000000000092610aa2828561190c565b6119d0565b7f025f89b99c8ce32af8da7624f4575b920a86ebf07870d85a9fb545fee349ddce600080a2005b60405162461bcd60e51b81526020600482015260096024820152683d32b9379030b2323960b91b6044820152606490fd5b346101b65760003660031901126101b657602061ffff60065460301c16604051908152f35b346101b65760003660031901126101b657602061ffff60045460501c16604051908152f35b346101b65760003660031901126101b6576040517f00000000000000000000000000000000000000000000000000000000000000006001600160a01b03168152602090f35b346101b65760003660031901126101b657602063ffffffff60015460a01c16604051908152f35b346101b65760003660031901126101b6576020600554604051908152f35b346101b65760003660031901126101b6576001546040516001600160a01b039091168152602090f35b346101b65760003660031901126101b657602063ffffffff60015460c01c16604051908152f35b346101b65760003660031901126101b657602063ffffffff60045460801c16604051908152f35b346101b65760003660031901126101b657602061ffff60045460701c16604051908152f35b346101b65760203660031901126101b6576020610376600435610ca3565b600435906001600160a01b03821682036101b657565b610cab6118e3565b610cb6811515610db6565b600154604051630888377160e11b815260048101839052600060248201526001600160a01b0390911691602082604481865afa91821561056757600092610d81575b506044612710610d1e60209461ffff610d178160045460301c16610e24565b1690610e4e565b049160006040519586948593631cf668b960e21b8552600485015260248401525af190811561056757600091610d52575090565b90506020813d602011610d79575b81610d6d60209383610dec565b810103126101b6575190565b3d9150610d60565b91506020823d602011610dae575b81610d9c60209383610dec565b810103126101b6579051906044610cf8565b3d9150610d8f565b15610dbd57565b60405162461bcd60e51b81526020600482015260076024820152663d32b9379034b760c91b6044820152606490fd5b90601f8019910116810190811067ffffffffffffffff821117610e0e57604052565b634e487b7160e01b600052604160045260246000fd5b61ffff16612710039061ffff8211610e3857565b634e487b7160e01b600052601160045260246000fd5b81810292918115918404141715610e3857565b8115610e6b570490565b634e487b7160e01b600052601260045260246000fd5b6001546040805163bd9a548b60e01b815291829060049082906001600160a01b03165afa90811561056757600091610eb7575090565b90506040813d604011610ed2575b81610d6d60409383610dec565b3d9150610ec5565b519061ffff821682036101b657565b9063ffffffff8091169116019063ffffffff8211610e3857565b91908203918211610e3857565b600160ff1b8114610e385760000390565b81810392916000138015828513169184121617610e3857565b91908201809211610e3857565b63ffffffff60045460a01c16421061176057610f61611a16565b6001805460405163f144d05f60e01b8152670de0b6b3a764000060048201526024810192909252608090829060449082906001600160a01b03165afa90811561056757600091611710575b506004549061ffff8260c01c16106116ef5750610fc761186d565b6004549061ffff8260201c1660010b9181156116cb5750610fe6610e81565b91610ff083611cf2565b926006546201518063ffffffff82160163ffffffff8111610e385763ffffffff164210156116ae575b5060045461271061103161ffff8360d01c1687610e4e565b04600554918183101561168657509061104991610f03565b61105282611e22565b906006549061ffff808360201c169260301c1680831160001461167e5780830361ffff8111610e3857925b0161ffff8111610e38578061271061ffff861611611674575b61ffff61271091161161166b575b85871261134157506040516370a0823160e01b8152306004820152946020866024817f00000000000000000000000000000000000000000000000000000000000000006001600160a01b03165afa9586156105675760009661130d575b5085156112e1576111486111186127109289610f21565b9660646111306004549961ffff8b60401c1690610e4e565b049061ffff8960601c168083116112d9575b50610e4e565b049485156112b057508085116112a8575b50831561127e5761ffff8091169116111580611253575b61122b577ff5a2189d8fdcb785a4fdac45e0635814d5f97750d468433582720593a9fe1df193610100936111bb6111a685611790565b936111b386600554610f3a565b600555611cf2565b926040519460c08652600360c08701526242555960e81b60e0870152602086015260408501526060840152608083015260a0820152a15b60045463ffffffff60a01b61121663ffffffff8360801c1663ffffffff4216610ee9565b60a01b169063ffffffff60a01b191617600455565b5050505060045463ffffffff60a01b61121663ffffffff8360801c1663ffffffff4216610ee9565b506004546201fffe61ffff8260201c1691601f1c169080820460021490151715610e38578312611170565b50505050505060045463ffffffff60a01b61121663ffffffff8360801c1663ffffffff4216610ee9565b935038611159565b965050505050505063ffffffff60a01b61121663ffffffff8360801c1663ffffffff4216610ee9565b915038611142565b505050505050505060045463ffffffff60a01b61121663ffffffff8360801c1663ffffffff4216610ee9565b90956020823d602011611339575b8161132860209383610dec565b8101031261055c5750519438611101565b3d915061131b565b91508461134d87610f10565b1215611360575b505050505050506111f2565b6040516370a0823160e01b8152306004820152906020826024817f00000000000000000000000000000000000000000000000000000000000000006001600160a01b03165afa91821561056757600092611637575b506040516370a0823160e01b8152306004820152956020876024817f00000000000000000000000000000000000000000000000000000000000000006001600160a01b03165afa96871561056757600097611603575b5086156115d65761145961142a612710926114258b610f10565b610f21565b9360646114426004549661ffff8860501c1690610e4e565b049061ffff8660701c168083116112d95750610e4e565b049182156115ac57508082116115a4575b50801561157957670de0b6b3a76400008102908104670de0b6b3a764000003610e38578361149791610e61565b93808511611571575b50831561127e5761ffff809116911610158061153d575b61122b577ff5a2189d8fdcb785a4fdac45e0635814d5f97750d468433582720593a9fe1df193610100936114fa6114ed85610ca3565b936111b385600554610f3a565b926040519460c08652600460c08701526314d1531360e21b60e0870152602086015260408501526060840152608083015260a0820152a138808080808080611354565b5061154783610f10565b600454906201fffe61ffff8360201c1692601f1c169180830460021490151715610e3857126114b7565b9350386114a0565b5050505050505060045463ffffffff60a01b61121663ffffffff8360801c1663ffffffff4216610ee9565b90503861146a565b97505050505050505063ffffffff60a01b61121663ffffffff8360801c1663ffffffff4216610ee9565b50505050505050505060045463ffffffff60a01b61121663ffffffff8360801c1663ffffffff4216610ee9565b90966020823d60201161162f575b8161161e60209383610dec565b8101031261055c575051953861140b565b3d9150611611565b9091506020813d602011611663575b8161165360209383610dec565b810103126101b6575190386113b5565b3d9150611646565b506127106110a4565b6127109450611096565b60009261107d565b9550505050505063ffffffff60a01b61121663ffffffff8360801c1663ffffffff4216610ee9565b63ffffffff19164263ffffffff1617600655600060055538611019565b91505063ffffffff60a01b61121663ffffffff8360801c1663ffffffff4216610ee9565b63ffffffff60a01b61121663ffffffff8360801c1663ffffffff4216610ee9565b90506080813d608011611758575b8161172b60809383610dec565b810103126101b65780611742602060609301610eda565b5061174f60408201610eda565b50015138610fac565b3d915061171e565b60405162461bcd60e51b815260206004820152600860248201526731b7b7b63237bbb760c11b6044820152606490fd5b6117986118e3565b6117a3811515610db6565b60018054604051630888377160e11b81526004810184905260248101929092526001600160a01b031691602082604481865afa91821561056757600092611838575b50604461271061180460209461ffff610d178160045460301c16610e24565b049160006040519586948593634cd53a0b60e11b8552600485015260248401525af190811561056757600091610d52575090565b91506020823d602011611865575b8161185360209383610dec565b810103126101b65790519060446117e5565b3d9150611846565b60035480156118dd57600254818082106118ac5761188a91610f03565b906127108202918083046127101490151715610e38576118a991610e61565b90565b906118b691610f03565b6127108102908082046127101490151715610e38576118a9916118d891610e61565b610f10565b50600090565b6000546001600160a01b031633036118f757565b63118cdaa760e01b6000523360045260246000fd5b60405163095ea7b360e01b60208083019182526001600160a01b039094166024830181905260006044808501829052845290949293929161194e606486610dec565b84519082855af16000513d826119ab575b50501561196b57505050565b6119a46119a9936040519063095ea7b360e01b60208301526024820152600060448201526044815261199e606482610dec565b82611f89565b611f89565b565b9091506119c857506001600160a01b0381163b15155b388061195f565b6001146119c1565b60405163095ea7b360e01b60208083019182526001600160a01b03909416602483018190526000196044808501919091528352939192919060009061194e606486610dec565b611a1e610e81565b9063ffffffff4216600354158015611ce8575b611c80576004549063ffffffff8216810363ffffffff8111610e385763ffffffff16908115611c79576001549160a083901c63ffffffff166000818310611c4657505063ffffffff670de0b6b3a7640000935b60c01c16906000828210611bd7575050507f0473ab1e0768b94c5901f7a4b07f1f7e18a0c009daa3bed9d60f64d758236a9e939481611bb792611b7d611b34670de0b6b3a7640000965b670de0b6b3a7640000611b2d60025492611b1a611b148a85611b0585898411938a85600014611bcd57611b0091610f03565b610e4e565b049015611bc557600190610e4e565b85610f3a565b938981811015611bbc57611b0091610f03565b0490610f03565b9586600255670de0b6b3a7640000611b2d60035492611b6a611b14858a1185611b05858d8a85600014611bcd57611b0091610f03565b938881811015611bbc57611b0091610f03565b958660035563ffffffff191617600455604051948594859094939263ffffffff906060936080840197845260208401521660408201520152565b0390a1565b50506000610e4e565b600090610e4e565b90611b0091610f03565b670de0b6b3a76400008202918204670de0b6b3a764000003611c3257509180611b7d611b34611c2c7f0473ab1e0768b94c5901f7a4b07f1f7e18a0c009daa3bed9d60f64d758236a9e999a95611bb797610e61565b96611ace565b634e487b7160e01b81526011600452602490fd5b670de0b6b3a7640000830290838204670de0b6b3a764000003611c32575063ffffffff91611c7391610e61565b93611a84565b5050509050565b600383905560028390556004805463ffffffff191682179055604080518481526020810185905263ffffffff909216908201526060810192909252907f0473ab1e0768b94c5901f7a4b07f1f7e18a0c009daa3bed9d60f64d758236a9e908060808101611bb7565b5060025415611a31565b6040516370a0823160e01b81523060048201526020816024817f00000000000000000000000000000000000000000000000000000000000000006001600160a01b03165afa90811561056757600091611df0575b506040516370a0823160e01b8152306004820152916020836024817f00000000000000000000000000000000000000000000000000000000000000006001600160a01b03165afa92831561056757600093611dba575b50611db3670de0b6b3a7640000916118a994610e4e565b0490610f3a565b92506020833d602011611de8575b81611dd560209383610dec565b810103126101b657915191611db3611d9c565b3d9150611dc8565b90506020813d602011611e1a575b81611e0b60209383610dec565b810103126101b6575138611d46565b3d9150611dfe565b6040516370a0823160e01b8152306004820152906020826024817f00000000000000000000000000000000000000000000000000000000000000006001600160a01b03165afa91821561056757600092611f55575b506040516370a0823160e01b8152306004820152906020826024817f00000000000000000000000000000000000000000000000000000000000000006001600160a01b03165afa91821561056757600092611f1f575b50611ee4670de0b6b3a764000091611eeb93610e4e565b0482610f3a565b908115611f18576127108102908082046127101490151715610e385761ffff91611f1491610e61565b1690565b5050600090565b91506020823d602011611f4d575b81611f3a60209383610dec565b810103126101b657905190611ee4611ecd565b3d9150611f2d565b90916020823d602011611f81575b81611f7060209383610dec565b8101031261055c5750519038611e77565b3d9150611f63565b906000602091828151910182855af115610567576000513d611fdb57506001600160a01b0381163b155b611fba5750565b635274afe760e01b60009081526001600160a01b0391909116600452602490fd5b60011415611fb356fea26469706673582212203b98a11db1899b21bd8468f7292b512cca3789cdf522789aa2e7db9d762a150464736f6c634300081c0033",
  "linkReferences": {},
  "deployedLinkReferences": {}
}